{
  "_format": "hh-sol-artifact-1",
  "contractName": "VividAccountFactory",
  "sourceName": "contracts/samples/VividAccountFactory.sol",
  "abi": [
    {
      "inputs": [
        {
          "internalType": "address",
          "name": "_admin",
          "type": "address"
        },
        {
          "internalType": "contract IEntryPoint",
          "name": "_entryPoint",
          "type": "address"
        }
      ],
      "stateMutability": "nonpayable",
      "type": "constructor"
    },
    {
      "inputs": [],
      "name": "accountImplementation",
      "outputs": [
        {
          "internalType": "contract VividAccount",
          "name": "",
          "type": "address"
        }
      ],
      "stateMutability": "view",
      "type": "function"
    },
    {
      "inputs": [
        {
          "internalType": "string",
          "name": "emailHash",
          "type": "string"
        },
        {
          "internalType": "uint256",
          "name": "salt",
          "type": "uint256"
        }
      ],
      "name": "createAccount",
      "outputs": [
        {
          "internalType": "contract VividAccount",
          "name": "ret",
          "type": "address"
        }
      ],
      "stateMutability": "nonpayable",
      "type": "function"
    },
    {
      "inputs": [
        {
          "internalType": "string",
          "name": "emailHash",
          "type": "string"
        },
        {
          "internalType": "uint256",
          "name": "salt",
          "type": "uint256"
        }
      ],
      "name": "getAddress",
      "outputs": [
        {
          "internalType": "address",
          "name": "",
          "type": "address"
        }
      ],
      "stateMutability": "view",
      "type": "function"
    }
  ],
  "bytecode": "0x60a060405234801561001057600080fd5b506040516138d13803806138d183398101604081905261002f916100aa565b818160405161003d90610085565b6001600160a01b03928316815291166020820152604001604051809103906000f080158015610070573d6000803e3d6000fd5b506001600160a01b0316608052506100e49050565b612a3f80610e9283390190565b6001600160a01b03811681146100a757600080fd5b50565b600080604083850312156100bd57600080fd5b82516100c881610092565b60208401519092506100d981610092565b809150509250929050565b608051610d8761010b6000396000818160510152818160fc01526102570152610d876000f3fe60806040523480156200001157600080fd5b5060043610620000465760003560e01c806311464fbe146200004b57806321ec1253146200009c5780636586ace614620000b3575b600080fd5b620000737f000000000000000000000000000000000000000000000000000000000000000081565b60405173ffffffffffffffffffffffffffffffffffffffff909116815260200160405180910390f35b62000073620000ad366004620003b3565b620000ca565b62000073620000c4366004620003b3565b62000218565b60006200020f8260001b60405180602001620000e69062000376565b6020820181038252601f19601f820116604052507f0000000000000000000000000000000000000000000000000000000000000000866040516024016200012e91906200050f565b604080517fffffffffffffffffffffffffffffffffffffffffffffffffffffffffffffffe0818403018152918152602080830180517bffffffffffffffffffffffffffffffffffffffffffffffffffffffff167ff62d1888000000000000000000000000000000000000000000000000000000001790529051620001b59392910162000524565b604080517fffffffffffffffffffffffffffffffffffffffffffffffffffffffffffffffe081840301815290829052620001f392916020016200055d565b6040516020818303038152906040528051906020012062000343565b90505b92915050565b600080620002278484620000ca565b905073ffffffffffffffffffffffffffffffffffffffff81163b8015620002515750905062000212565b8360001b7f0000000000000000000000000000000000000000000000000000000000000000866040516024016200028991906200050f565b604080517fffffffffffffffffffffffffffffffffffffffffffffffffffffffffffffffe08184030181529181526020820180517bffffffffffffffffffffffffffffffffffffffffffffffffffffffff167ff62d188800000000000000000000000000000000000000000000000000000000179052516200030b9062000376565b6200031892919062000524565b8190604051809103906000f590508015801562000339573d6000803e3d6000fd5b5095945050505050565b60006200020f8383306000604051836040820152846020820152828152600b8101905060ff815360559020949350505050565b6107c1806200059183390190565b7f4e487b7100000000000000000000000000000000000000000000000000000000600052604160045260246000fd5b60008060408385031215620003c757600080fd5b823567ffffffffffffffff80821115620003e057600080fd5b818501915085601f830112620003f557600080fd5b8135818111156200040a576200040a62000384565b604051601f82017fffffffffffffffffffffffffffffffffffffffffffffffffffffffffffffffe0908116603f0116810190838211818310171562000453576200045362000384565b816040528281528860208487010111156200046d57600080fd5b826020860160208301376000602093820184015298969091013596505050505050565b60005b83811015620004ad57818101518382015260200162000493565b83811115620004bd576000848401525b50505050565b60008151808452620004dd81602086016020860162000490565b601f017fffffffffffffffffffffffffffffffffffffffffffffffffffffffffffffffe0169290920160200192915050565b6020815260006200020f6020830184620004c3565b73ffffffffffffffffffffffffffffffffffffffff83168152604060208201526000620005556040830184620004c3565b949350505050565b600083516200057181846020880162000490565b8351908301906200058781836020880162000490565b0194935050505056fe60806040526040516107c13803806107c183398101604081905261002291610321565b61002e82826000610035565b505061043e565b61003e8361006b565b60008251118061004b5750805b156100665761006483836100ab60201b6100291760201c565b505b505050565b610074816100d7565b6040516001600160a01b038216907fbc7cd75a20ee27fd9adebab32041f755214dbc6bffa90cc0225b39da2e5c2d3b90600090a250565b60606100d0838360405180606001604052806027815260200161079a602791396101a9565b9392505050565b6100ea8161022260201b6100551760201c565b6101515760405162461bcd60e51b815260206004820152602d60248201527f455243313936373a206e657720696d706c656d656e746174696f6e206973206e60448201526c1bdd08184818dbdb9d1c9858dd609a1b60648201526084015b60405180910390fd5b806101887f360894a13ba1a3210667c828492db98dca3e2076cc3735a920a3ca505d382bbc60001b61023160201b6100711760201c565b80546001600160a01b0319166001600160a01b039290921691909117905550565b6060600080856001600160a01b0316856040516101c691906103ef565b600060405180830381855af49150503d8060008114610201576040519150601f19603f3d011682016040523d82523d6000602084013e610206565b606091505b50909250905061021886838387610234565b9695505050505050565b6001600160a01b03163b151590565b90565b606083156102a357825160000361029c576001600160a01b0385163b61029c5760405162461bcd60e51b815260206004820152601d60248201527f416464726573733a2063616c6c20746f206e6f6e2d636f6e74726163740000006044820152606401610148565b50816102ad565b6102ad83836102b5565b949350505050565b8151156102c55781518083602001fd5b8060405162461bcd60e51b8152600401610148919061040b565b634e487b7160e01b600052604160045260246000fd5b60005b838110156103105781810151838201526020016102f8565b838111156100645750506000910152565b6000806040838503121561033457600080fd5b82516001600160a01b038116811461034b57600080fd5b60208401519092506001600160401b038082111561036857600080fd5b818501915085601f83011261037c57600080fd5b81518181111561038e5761038e6102df565b604051601f8201601f19908116603f011681019083821181831017156103b6576103b66102df565b816040528281528860208487010111156103cf57600080fd5b6103e08360208301602088016102f5565b80955050505050509250929050565b600082516104018184602087016102f5565b9190910192915050565b602081526000825180602084015261042a8160408501602087016102f5565b601f01601f19169190910160400192915050565b61034d8061044d6000396000f3fe60806040523661001357610011610017565b005b6100115b610027610022610074565b6100b9565b565b606061004e83836040518060600160405280602781526020016102f1602791396100dd565b9392505050565b73ffffffffffffffffffffffffffffffffffffffff163b151590565b90565b60006100b47f360894a13ba1a3210667c828492db98dca3e2076cc3735a920a3ca505d382bbc5473ffffffffffffffffffffffffffffffffffffffff1690565b905090565b3660008037600080366000845af43d6000803e8080156100d8573d6000f35b3d6000fd5b60606000808573ffffffffffffffffffffffffffffffffffffffff16856040516101079190610283565b600060405180830381855af49150503d8060008114610142576040519150601f19603f3d011682016040523d82523d6000602084013e610147565b606091505b509150915061015886838387610162565b9695505050505050565b606083156101fd5782516000036101f65773ffffffffffffffffffffffffffffffffffffffff85163b6101f6576040517f08c379a000000000000000000000000000000000000000000000000000000000815260206004820152601d60248201527f416464726573733a2063616c6c20746f206e6f6e2d636f6e747261637400000060448201526064015b60405180910390fd5b5081610207565b610207838361020f565b949350505050565b81511561021f5781518083602001fd5b806040517f08c379a00000000000000000000000000000000000000000000000000000000081526004016101ed919061029f565b60005b8381101561026e578181015183820152602001610256565b8381111561027d576000848401525b50505050565b60008251610295818460208701610253565b9190910192915050565b60208152600082518060208401526102be816040850160208701610253565b601f017fffffffffffffffffffffffffffffffffffffffffffffffffffffffffffffffe016919091016040019291505056fe416464726573733a206c6f772d6c6576656c2064656c65676174652063616c6c206661696c6564a26469706673582212201cd78ab6a31213989661cff2d7d05fc9b9c38b1a848e8249e2e398659a9eb7e364736f6c634300080f0033416464726573733a206c6f772d6c6576656c2064656c65676174652063616c6c206661696c6564a264697066735822122087f61a8344737f7e58e30321a3adea13759dc26a62b442f2a0aee2bf4a26c16964736f6c634300080f003360e0604052306080523480156200001557600080fd5b5060405162002a3f38038062002a3f833981016040819052620000389162000138565b6001600160a01b0380821660c052821660a052620000556200005d565b505062000177565b600054610100900460ff1615620000ca5760405162461bcd60e51b815260206004820152602760248201527f496e697469616c697a61626c653a20636f6e747261637420697320696e697469604482015266616c697a696e6760c81b606482015260840160405180910390fd5b60005460ff90811610156200011d576000805460ff191660ff9081179091556040519081527f7f26b83ff96e1f2b6a682f133852f6798a09c465da95921460cefb38474024989060200160405180910390a15b565b6001600160a01b03811681146200013557600080fd5b50565b600080604083850312156200014c57600080fd5b825162000159816200011f565b60208401519092506200016c816200011f565b809150509250929050565b60805160a05160c05161282f62000210600039600081816103b201528181610a1a01528181610ac101528181610ee501528181610fa3015281816112280152818161159001526117d80152600081816104dd0152818161117d01528181611267015281816116d901526117a10152600081816107760152818161082601528181610b8501528181610c350152610d7e015261282f6000f3fe60806040526004361061016d5760003560e01c80634f1ef286116100cb578063bc197c811161007f578063f23a6e6111610059578063f23a6e6114610468578063f62d1888146104ae578063f851a440146104ce57600080fd5b8063bc197c81146103f6578063c399ec881461043e578063d087d2881461045357600080fd5b80638da5cb5b116100b05780638da5cb5b1461034b578063b0d691fe146103a3578063b61d27f6146103d657600080fd5b80634f1ef2861461032357806352d1902d1461033657600080fd5b80633659cfe6116101225780633a871cdd116101075780633a871cdd146102cd5780634a58db19146102fb5780634d44560d1461030357600080fd5b80633659cfe61461028b57806336cb8477146102ab57600080fd5b806313af40351161015357806313af4035146101d5578063150b7a02146101f557806318dfb3c71461026b57600080fd5b806223de291461017957806301ffc9a7146101a057600080fd5b3661017457005b600080fd5b34801561018557600080fd5b5061019e610194366004611ebd565b5050505050505050565b005b3480156101ac57600080fd5b506101c06101bb366004611f6e565b610501565b60405190151581526020015b60405180910390f35b3480156101e157600080fd5b5061019e6101f0366004611fb0565b6105e6565b34801561020157600080fd5b5061023a610210366004611fcd565b7f150b7a020000000000000000000000000000000000000000000000000000000095945050505050565b6040517fffffffff0000000000000000000000000000000000000000000000000000000090911681526020016101cc565b34801561027757600080fd5b5061019e610286366004612085565b61063b565b34801561029757600080fd5b5061019e6102a6366004611fb0565b61075f565b3480156102b757600080fd5b506102c0610964565b6040516101cc919061211d565b3480156102d957600080fd5b506102ed6102e836600461216e565b6109f2565b6040519081526020016101cc565b61019e610a18565b34801561030f57600080fd5b5061019e61031e3660046121c2565b610ab7565b61019e6103313660046122b1565b610b6e565b34801561034257600080fd5b506102ed610d64565b34801561035757600080fd5b5060005461037e9062010000900473ffffffffffffffffffffffffffffffffffffffff1681565b60405173ffffffffffffffffffffffffffffffffffffffff90911681526020016101cc565b3480156103af57600080fd5b507f000000000000000000000000000000000000000000000000000000000000000061037e565b3480156103e257600080fd5b5061019e6103f1366004612315565b610e50565b34801561040257600080fd5b5061023a610411366004612365565b7fbc197c810000000000000000000000000000000000000000000000000000000098975050505050505050565b34801561044a57600080fd5b506102ed610e9f565b34801561045f57600080fd5b506102ed610f56565b34801561047457600080fd5b5061023a610483366004612403565b7ff23a6e61000000000000000000000000000000000000000000000000000000009695505050505050565b3480156104ba57600080fd5b5061019e6104c936600461247f565b610fd2565b3480156104da57600080fd5b507f000000000000000000000000000000000000000000000000000000000000000061037e565b60007fffffffff0000000000000000000000000000000000000000000000000000000082167f150b7a0200000000000000000000000000000000000000000000000000000000148061059457507fffffffff0000000000000000000000000000000000000000000000000000000082167f4e2312e000000000000000000000000000000000000000000000000000000000145b806105e057507fffffffff0000000000000000000000000000000000000000000000000000000082167f01ffc9a700000000000000000000000000000000000000000000000000000000145b92915050565b6105ee611165565b6000805473ffffffffffffffffffffffffffffffffffffffff90921662010000027fffffffffffffffffffff0000000000000000000000000000000000000000ffff909216919091179055565b610643611210565b8281146106b1576040517f08c379a000000000000000000000000000000000000000000000000000000000815260206004820152601360248201527f77726f6e67206172726179206c656e677468730000000000000000000000000060448201526064015b60405180910390fd5b60005b83811015610758576107468585838181106106d1576106d16124c8565b90506020020160208101906106e69190611fb0565b60008585858181106106fa576106fa6124c8565b905060200281019061070c91906124f7565b8080601f0160208091040260200160405190810160405280939291908181526020018383808284376000920191909152506112ef92505050565b806107508161255c565b9150506106b4565b5050505050565b73ffffffffffffffffffffffffffffffffffffffff7f0000000000000000000000000000000000000000000000000000000000000000163003610824576040517f08c379a000000000000000000000000000000000000000000000000000000000815260206004820152602c60248201527f46756e6374696f6e206d7573742062652063616c6c6564207468726f7567682060448201527f64656c656761746563616c6c000000000000000000000000000000000000000060648201526084016106a8565b7f000000000000000000000000000000000000000000000000000000000000000073ffffffffffffffffffffffffffffffffffffffff166108997f360894a13ba1a3210667c828492db98dca3e2076cc3735a920a3ca505d382bbc5473ffffffffffffffffffffffffffffffffffffffff1690565b73ffffffffffffffffffffffffffffffffffffffff161461093c576040517f08c379a000000000000000000000000000000000000000000000000000000000815260206004820152602c60248201527f46756e6374696f6e206d7573742062652063616c6c6564207468726f7567682060448201527f6163746976652070726f7879000000000000000000000000000000000000000060648201526084016106a8565b6109458161136c565b6040805160008082526020820190925261096191839190611374565b50565b60018054610971906125bb565b80601f016020809104026020016040519081016040528092919081815260200182805461099d906125bb565b80156109ea5780601f106109bf576101008083540402835291602001916109ea565b820191906000526020600020905b8154815290600101906020018083116109cd57829003601f168201915b505050505081565b60006109fc611578565b610a068484611617565b9050610a1182611727565b9392505050565b7f00000000000000000000000000000000000000000000000000000000000000006040517fb760faf900000000000000000000000000000000000000000000000000000000815230600482015273ffffffffffffffffffffffffffffffffffffffff919091169063b760faf99034906024016000604051808303818588803b158015610aa357600080fd5b505af1158015610758573d6000803e3d6000fd5b610abf611165565b7f00000000000000000000000000000000000000000000000000000000000000006040517f205c287800000000000000000000000000000000000000000000000000000000815273ffffffffffffffffffffffffffffffffffffffff848116600483015260248201849052919091169063205c287890604401600060405180830381600087803b158015610b5257600080fd5b505af1158015610b66573d6000803e3d6000fd5b505050505050565b73ffffffffffffffffffffffffffffffffffffffff7f0000000000000000000000000000000000000000000000000000000000000000163003610c33576040517f08c379a000000000000000000000000000000000000000000000000000000000815260206004820152602c60248201527f46756e6374696f6e206d7573742062652063616c6c6564207468726f7567682060448201527f64656c656761746563616c6c000000000000000000000000000000000000000060648201526084016106a8565b7f000000000000000000000000000000000000000000000000000000000000000073ffffffffffffffffffffffffffffffffffffffff16610ca87f360894a13ba1a3210667c828492db98dca3e2076cc3735a920a3ca505d382bbc5473ffffffffffffffffffffffffffffffffffffffff1690565b73ffffffffffffffffffffffffffffffffffffffff1614610d4b576040517f08c379a000000000000000000000000000000000000000000000000000000000815260206004820152602c60248201527f46756e6374696f6e206d7573742062652063616c6c6564207468726f7567682060448201527f6163746976652070726f7879000000000000000000000000000000000000000060648201526084016106a8565b610d548261136c565b610d6082826001611374565b5050565b60003073ffffffffffffffffffffffffffffffffffffffff7f00000000000000000000000000000000000000000000000000000000000000001614610e2b576040517f08c379a000000000000000000000000000000000000000000000000000000000815260206004820152603860248201527f555550535570677261646561626c653a206d757374206e6f742062652063616c60448201527f6c6564207468726f7567682064656c656761746563616c6c000000000000000060648201526084016106a8565b507f360894a13ba1a3210667c828492db98dca3e2076cc3735a920a3ca505d382bbc90565b610e58611210565b610e99848484848080601f0160208091040260200160405190810160405280939291908181526020018383808284376000920191909152506112ef92505050565b50505050565b6040517f70a0823100000000000000000000000000000000000000000000000000000000815230600482015260009073ffffffffffffffffffffffffffffffffffffffff7f000000000000000000000000000000000000000000000000000000000000000016906370a08231906024015b602060405180830381865afa158015610f2d573d6000803e3d6000fd5b505050506040513d601f19601f82011682018060405250810190610f51919061260e565b905090565b6040517f35567e1a0000000000000000000000000000000000000000000000000000000081523060048201526000602482018190529073ffffffffffffffffffffffffffffffffffffffff7f000000000000000000000000000000000000000000000000000000000000000016906335567e1a90604401610f10565b600054610100900460ff1615808015610ff25750600054600160ff909116105b8061100c5750303b15801561100c575060005460ff166001145b611098576040517f08c379a000000000000000000000000000000000000000000000000000000000815260206004820152602e60248201527f496e697469616c697a61626c653a20636f6e747261637420697320616c72656160448201527f647920696e697469616c697a656400000000000000000000000000000000000060648201526084016106a8565b600080547fffffffffffffffffffffffffffffffffffffffffffffffffffffffffffffff0016600117905580156110f657600080547fffffffffffffffffffffffffffffffffffffffffffffffffffffffffffff00ff166101001790555b6110ff82611792565b8015610d6057600080547fffffffffffffffffffffffffffffffffffffffffffffffffffffffffffff00ff169055604051600181527f7f26b83ff96e1f2b6a682f133852f6798a09c465da95921460cefb38474024989060200160405180910390a15050565b3373ffffffffffffffffffffffffffffffffffffffff7f00000000000000000000000000000000000000000000000000000000000000001614806111a857503330145b61120e576040517f08c379a000000000000000000000000000000000000000000000000000000000815260206004820152600a60248201527f6f6e6c792061646d696e0000000000000000000000000000000000000000000060448201526064016106a8565b565b3373ffffffffffffffffffffffffffffffffffffffff7f000000000000000000000000000000000000000000000000000000000000000016148061128957503373ffffffffffffffffffffffffffffffffffffffff7f000000000000000000000000000000000000000000000000000000000000000016145b61120e576040517f08c379a000000000000000000000000000000000000000000000000000000000815260206004820181905260248201527f6163636f756e743a206e6f74204f776e6572206f7220456e747279506f696e7460448201526064016106a8565b6000808473ffffffffffffffffffffffffffffffffffffffff1684846040516113189190612627565b60006040518083038185875af1925050503d8060008114611355576040519150601f19603f3d011682016040523d82523d6000602084013e61135a565b606091505b50915091508161075857805160208201fd5b610961611165565b7f4910fdfa16fed3260ed0e7147f7cc6da11a60208b5b9406d12a635614ffd91435460ff16156113ac576113a78361183c565b505050565b8273ffffffffffffffffffffffffffffffffffffffff166352d1902d6040518163ffffffff1660e01b8152600401602060405180830381865afa925050508015611431575060408051601f3d9081017fffffffffffffffffffffffffffffffffffffffffffffffffffffffffffffffe016820190925261142e9181019061260e565b60015b6114bd576040517f08c379a000000000000000000000000000000000000000000000000000000000815260206004820152602e60248201527f45524331393637557067726164653a206e657720696d706c656d656e7461746960448201527f6f6e206973206e6f74205555505300000000000000000000000000000000000060648201526084016106a8565b7f360894a13ba1a3210667c828492db98dca3e2076cc3735a920a3ca505d382bbc811461156c576040517f08c379a000000000000000000000000000000000000000000000000000000000815260206004820152602960248201527f45524331393637557067726164653a20756e737570706f727465642070726f7860448201527f6961626c6555554944000000000000000000000000000000000000000000000060648201526084016106a8565b506113a7838383611946565b3373ffffffffffffffffffffffffffffffffffffffff7f0000000000000000000000000000000000000000000000000000000000000000161461120e576040517f08c379a000000000000000000000000000000000000000000000000000000000815260206004820152601c60248201527f6163636f756e743a206e6f742066726f6d20456e747279506f696e740000000060448201526064016106a8565b600080611671836040517f19457468657265756d205369676e6564204d6573736167653a0a3332000000006020820152603c8101829052600090605c01604051602081830303815290604052805190602001209050919050565b90506116c16116846101408601866124f7565b8080601f016020809104026020016040519081016040528093929190818152602001838380828437600092019190915250859392505061196b9050565b73ffffffffffffffffffffffffffffffffffffffff167f000000000000000000000000000000000000000000000000000000000000000073ffffffffffffffffffffffffffffffffffffffff161461171d5760019150506105e0565b5060009392505050565b80156109615760405160009033907fffffffffffffffffffffffffffffffffffffffffffffffffffffffffffffffff90849084818181858888f193505050503d8060008114610758576040519150601f19603f3d011682016040523d82523d6000602084013e610758565b600161179e8282612689565b507f000000000000000000000000000000000000000000000000000000000000000073ffffffffffffffffffffffffffffffffffffffff167f000000000000000000000000000000000000000000000000000000000000000073ffffffffffffffffffffffffffffffffffffffff167f2936db2b9b8282af837b9f9ec596b11fe45b4c018800d4f048604d6bfc3730ca60405160405180910390a350565b73ffffffffffffffffffffffffffffffffffffffff81163b6118e0576040517f08c379a000000000000000000000000000000000000000000000000000000000815260206004820152602d60248201527f455243313936373a206e657720696d706c656d656e746174696f6e206973206e60448201527f6f74206120636f6e74726163740000000000000000000000000000000000000060648201526084016106a8565b7f360894a13ba1a3210667c828492db98dca3e2076cc3735a920a3ca505d382bbc80547fffffffffffffffffffffffff00000000000000000000000000000000000000001673ffffffffffffffffffffffffffffffffffffffff92909216919091179055565b61194f8361198f565b60008251118061195c5750805b156113a757610e9983836119dc565b600080600061197a8585611a01565b9150915061198781611a46565b509392505050565b6119988161183c565b60405173ffffffffffffffffffffffffffffffffffffffff8216907fbc7cd75a20ee27fd9adebab32041f755214dbc6bffa90cc0225b39da2e5c2d3b90600090a250565b6060610a1183836040518060600160405280602781526020016127d360279139611bf9565b6000808251604103611a375760208301516040840151606085015160001a611a2b87828585611c7e565b94509450505050611a3f565b506000905060025b9250929050565b6000816004811115611a5a57611a5a6127a3565b03611a625750565b6001816004811115611a7657611a766127a3565b03611add576040517f08c379a000000000000000000000000000000000000000000000000000000000815260206004820152601860248201527f45434453413a20696e76616c6964207369676e6174757265000000000000000060448201526064016106a8565b6002816004811115611af157611af16127a3565b03611b58576040517f08c379a000000000000000000000000000000000000000000000000000000000815260206004820152601f60248201527f45434453413a20696e76616c6964207369676e6174757265206c656e6774680060448201526064016106a8565b6003816004811115611b6c57611b6c6127a3565b03610961576040517f08c379a000000000000000000000000000000000000000000000000000000000815260206004820152602260248201527f45434453413a20696e76616c6964207369676e6174757265202773272076616c60448201527f756500000000000000000000000000000000000000000000000000000000000060648201526084016106a8565b60606000808573ffffffffffffffffffffffffffffffffffffffff1685604051611c239190612627565b600060405180830381855af49150503d8060008114611c5e576040519150601f19603f3d011682016040523d82523d6000602084013e611c63565b606091505b5091509150611c7486838387611d6d565b9695505050505050565b6000807f7fffffffffffffffffffffffffffffff5d576e7357a4501ddfe92f46681b20a0831115611cb55750600090506003611d64565b6040805160008082526020820180845289905260ff881692820192909252606081018690526080810185905260019060a0016020604051602081039080840390855afa158015611d09573d6000803e3d6000fd5b50506040517fffffffffffffffffffffffffffffffffffffffffffffffffffffffffffffffe0015191505073ffffffffffffffffffffffffffffffffffffffff8116611d5d57600060019250925050611d64565b9150600090505b94509492505050565b60608315611e03578251600003611dfc5773ffffffffffffffffffffffffffffffffffffffff85163b611dfc576040517f08c379a000000000000000000000000000000000000000000000000000000000815260206004820152601d60248201527f416464726573733a2063616c6c20746f206e6f6e2d636f6e747261637400000060448201526064016106a8565b5081611e0d565b611e0d8383611e15565b949350505050565b815115611e255781518083602001fd5b806040517f08c379a00000000000000000000000000000000000000000000000000000000081526004016106a8919061211d565b73ffffffffffffffffffffffffffffffffffffffff8116811461096157600080fd5b60008083601f840112611e8d57600080fd5b50813567ffffffffffffffff811115611ea557600080fd5b602083019150836020828501011115611a3f57600080fd5b60008060008060008060008060c0898b031215611ed957600080fd5b8835611ee481611e59565b97506020890135611ef481611e59565b96506040890135611f0481611e59565b955060608901359450608089013567ffffffffffffffff80821115611f2857600080fd5b611f348c838d01611e7b565b909650945060a08b0135915080821115611f4d57600080fd5b50611f5a8b828c01611e7b565b999c989b5096995094979396929594505050565b600060208284031215611f8057600080fd5b81357fffffffff0000000000000000000000000000000000000000000000000000000081168114610a1157600080fd5b600060208284031215611fc257600080fd5b8135610a1181611e59565b600080600080600060808688031215611fe557600080fd5b8535611ff081611e59565b9450602086013561200081611e59565b935060408601359250606086013567ffffffffffffffff81111561202357600080fd5b61202f88828901611e7b565b969995985093965092949392505050565b60008083601f84011261205257600080fd5b50813567ffffffffffffffff81111561206a57600080fd5b6020830191508360208260051b8501011115611a3f57600080fd5b6000806000806040858703121561209b57600080fd5b843567ffffffffffffffff808211156120b357600080fd5b6120bf88838901612040565b909650945060208701359150808211156120d857600080fd5b506120e587828801612040565b95989497509550505050565b60005b8381101561210c5781810151838201526020016120f4565b83811115610e995750506000910152565b602081526000825180602084015261213c8160408501602087016120f1565b601f017fffffffffffffffffffffffffffffffffffffffffffffffffffffffffffffffe0169190910160400192915050565b60008060006060848603121561218357600080fd5b833567ffffffffffffffff81111561219a57600080fd5b840161016081870312156121ad57600080fd5b95602085013595506040909401359392505050565b600080604083850312156121d557600080fd5b82356121e081611e59565b946020939093013593505050565b7f4e487b7100000000000000000000000000000000000000000000000000000000600052604160045260246000fd5b600067ffffffffffffffff80841115612238576122386121ee565b604051601f85017fffffffffffffffffffffffffffffffffffffffffffffffffffffffffffffffe0908116603f0116810190828211818310171561227e5761227e6121ee565b8160405280935085815286868601111561229757600080fd5b858560208301376000602087830101525050509392505050565b600080604083850312156122c457600080fd5b82356122cf81611e59565b9150602083013567ffffffffffffffff8111156122eb57600080fd5b8301601f810185136122fc57600080fd5b61230b8582356020840161221d565b9150509250929050565b6000806000806060858703121561232b57600080fd5b843561233681611e59565b935060208501359250604085013567ffffffffffffffff81111561235957600080fd5b6120e587828801611e7b565b60008060008060008060008060a0898b03121561238157600080fd5b883561238c81611e59565b9750602089013561239c81611e59565b9650604089013567ffffffffffffffff808211156123b957600080fd5b6123c58c838d01612040565b909850965060608b01359150808211156123de57600080fd5b6123ea8c838d01612040565b909650945060808b0135915080821115611f4d57600080fd5b60008060008060008060a0878903121561241c57600080fd5b863561242781611e59565b9550602087013561243781611e59565b94506040870135935060608701359250608087013567ffffffffffffffff81111561246157600080fd5b61246d89828a01611e7b565b979a9699509497509295939492505050565b60006020828403121561249157600080fd5b813567ffffffffffffffff8111156124a857600080fd5b8201601f810184136124b957600080fd5b611e0d8482356020840161221d565b7f4e487b7100000000000000000000000000000000000000000000000000000000600052603260045260246000fd5b60008083357fffffffffffffffffffffffffffffffffffffffffffffffffffffffffffffffe184360301811261252c57600080fd5b83018035915067ffffffffffffffff82111561254757600080fd5b602001915036819003821315611a3f57600080fd5b60007fffffffffffffffffffffffffffffffffffffffffffffffffffffffffffffffff82036125b4577f4e487b7100000000000000000000000000000000000000000000000000000000600052601160045260246000fd5b5060010190565b600181811c908216806125cf57607f821691505b602082108103612608577f4e487b7100000000000000000000000000000000000000000000000000000000600052602260045260246000fd5b50919050565b60006020828403121561262057600080fd5b5051919050565b600082516126398184602087016120f1565b9190910192915050565b601f8211156113a757600081815260208120601f850160051c8101602086101561266a5750805b601f850160051c820191505b81811015610b6657828155600101612676565b815167ffffffffffffffff8111156126a3576126a36121ee565b6126b7816126b184546125bb565b84612643565b602080601f83116001811461270a57600084156126d45750858301515b7fffffffffffffffffffffffffffffffffffffffffffffffffffffffffffffffff600386901b1c1916600185901b178555610b66565b6000858152602081207fffffffffffffffffffffffffffffffffffffffffffffffffffffffffffffffe08616915b8281101561275757888601518255948401946001909101908401612738565b508582101561279357878501517fffffffffffffffffffffffffffffffffffffffffffffffffffffffffffffffff600388901b60f8161c191681555b5050505050600190811b01905550565b7f4e487b7100000000000000000000000000000000000000000000000000000000600052602160045260246000fdfe416464726573733a206c6f772d6c6576656c2064656c65676174652063616c6c206661696c6564a264697066735822122094baf2d805770d8fe24fc004926ba949b8af74c1b1e66c4e2c6e2f1287a0710664736f6c634300080f0033",
  "linkReferences": {},
  "deployedLinkReferences": {}
}