{
  "_format": "hh-sol-artifact-1",
  "contractName": "Vivid721v2",
  "sourceName": "contracts/Vivid721v2.sol",
  "abi": [
    {
      "inputs": [
        {
          "internalType": "string",
          "name": "name",
          "type": "string"
        },
        {
          "internalType": "string",
          "name": "symbol",
          "type": "string"
        }
      ],
      "stateMutability": "nonpayable",
      "type": "constructor"
    },
    {
      "anonymous": false,
      "inputs": [
        {
          "indexed": true,
          "internalType": "address",
          "name": "owner",
          "type": "address"
        },
        {
          "indexed": true,
          "internalType": "address",
          "name": "approved",
          "type": "address"
        },
        {
          "indexed": true,
          "internalType": "uint256",
          "name": "tokenId",
          "type": "uint256"
        }
      ],
      "name": "Approval",
      "type": "event"
    },
    {
      "anonymous": false,
      "inputs": [
        {
          "indexed": true,
          "internalType": "address",
          "name": "owner",
          "type": "address"
        },
        {
          "indexed": true,
          "internalType": "address",
          "name": "operator",
          "type": "address"
        },
        {
          "indexed": false,
          "internalType": "bool",
          "name": "approved",
          "type": "bool"
        }
      ],
      "name": "ApprovalForAll",
      "type": "event"
    },
    {
      "anonymous": false,
      "inputs": [
        {
          "indexed": true,
          "internalType": "bytes32",
          "name": "role",
          "type": "bytes32"
        },
        {
          "indexed": true,
          "internalType": "bytes32",
          "name": "previousAdminRole",
          "type": "bytes32"
        },
        {
          "indexed": true,
          "internalType": "bytes32",
          "name": "newAdminRole",
          "type": "bytes32"
        }
      ],
      "name": "RoleAdminChanged",
      "type": "event"
    },
    {
      "anonymous": false,
      "inputs": [
        {
          "indexed": true,
          "internalType": "bytes32",
          "name": "role",
          "type": "bytes32"
        },
        {
          "indexed": true,
          "internalType": "address",
          "name": "account",
          "type": "address"
        },
        {
          "indexed": true,
          "internalType": "address",
          "name": "sender",
          "type": "address"
        }
      ],
      "name": "RoleGranted",
      "type": "event"
    },
    {
      "anonymous": false,
      "inputs": [
        {
          "indexed": true,
          "internalType": "bytes32",
          "name": "role",
          "type": "bytes32"
        },
        {
          "indexed": true,
          "internalType": "address",
          "name": "account",
          "type": "address"
        },
        {
          "indexed": true,
          "internalType": "address",
          "name": "sender",
          "type": "address"
        }
      ],
      "name": "RoleRevoked",
      "type": "event"
    },
    {
      "anonymous": false,
      "inputs": [
        {
          "indexed": true,
          "internalType": "address",
          "name": "from",
          "type": "address"
        },
        {
          "indexed": true,
          "internalType": "address",
          "name": "to",
          "type": "address"
        },
        {
          "indexed": true,
          "internalType": "uint256",
          "name": "tokenId",
          "type": "uint256"
        }
      ],
      "name": "Transfer",
      "type": "event"
    },
    {
      "inputs": [],
      "name": "DEFAULT_ADMIN_ROLE",
      "outputs": [
        {
          "internalType": "bytes32",
          "name": "",
          "type": "bytes32"
        }
      ],
      "stateMutability": "view",
      "type": "function"
    },
    {
      "inputs": [],
      "name": "MINTER_ROLE",
      "outputs": [
        {
          "internalType": "bytes32",
          "name": "",
          "type": "bytes32"
        }
      ],
      "stateMutability": "view",
      "type": "function"
    },
    {
      "inputs": [],
      "name": "UPDATER_ROLE",
      "outputs": [
        {
          "internalType": "bytes32",
          "name": "",
          "type": "bytes32"
        }
      ],
      "stateMutability": "view",
      "type": "function"
    },
    {
      "inputs": [
        {
          "internalType": "address",
          "name": "to",
          "type": "address"
        },
        {
          "internalType": "uint256",
          "name": "tokenId",
          "type": "uint256"
        }
      ],
      "name": "approve",
      "outputs": [],
      "stateMutability": "nonpayable",
      "type": "function"
    },
    {
      "inputs": [
        {
          "internalType": "address",
          "name": "owner",
          "type": "address"
        }
      ],
      "name": "balanceOf",
      "outputs": [
        {
          "internalType": "uint256",
          "name": "",
          "type": "uint256"
        }
      ],
      "stateMutability": "view",
      "type": "function"
    },
    {
      "inputs": [
        {
          "internalType": "uint256",
          "name": "tokenId",
          "type": "uint256"
        }
      ],
      "name": "burn",
      "outputs": [],
      "stateMutability": "nonpayable",
      "type": "function"
    },
    {
      "inputs": [
        {
          "internalType": "uint256",
          "name": "tokenId",
          "type": "uint256"
        }
      ],
      "name": "getApproved",
      "outputs": [
        {
          "internalType": "address",
          "name": "",
          "type": "address"
        }
      ],
      "stateMutability": "view",
      "type": "function"
    },
    {
      "inputs": [
        {
          "internalType": "bytes32",
          "name": "role",
          "type": "bytes32"
        }
      ],
      "name": "getRoleAdmin",
      "outputs": [
        {
          "internalType": "bytes32",
          "name": "",
          "type": "bytes32"
        }
      ],
      "stateMutability": "view",
      "type": "function"
    },
    {
      "inputs": [
        {
          "internalType": "bytes32",
          "name": "role",
          "type": "bytes32"
        },
        {
          "internalType": "address",
          "name": "account",
          "type": "address"
        }
      ],
      "name": "grantRole",
      "outputs": [],
      "stateMutability": "nonpayable",
      "type": "function"
    },
    {
      "inputs": [
        {
          "internalType": "bytes32",
          "name": "role",
          "type": "bytes32"
        },
        {
          "internalType": "address",
          "name": "account",
          "type": "address"
        }
      ],
      "name": "hasRole",
      "outputs": [
        {
          "internalType": "bool",
          "name": "",
          "type": "bool"
        }
      ],
      "stateMutability": "view",
      "type": "function"
    },
    {
      "inputs": [
        {
          "internalType": "address",
          "name": "owner",
          "type": "address"
        },
        {
          "internalType": "address",
          "name": "operator",
          "type": "address"
        }
      ],
      "name": "isApprovedForAll",
      "outputs": [
        {
          "internalType": "bool",
          "name": "",
          "type": "bool"
        }
      ],
      "stateMutability": "view",
      "type": "function"
    },
    {
      "inputs": [
        {
          "internalType": "address",
          "name": "to",
          "type": "address"
        },
        {
          "internalType": "uint256",
          "name": "tokenId",
          "type": "uint256"
        },
        {
          "internalType": "string",
          "name": "uri",
          "type": "string"
        }
      ],
      "name": "mint",
      "outputs": [],
      "stateMutability": "nonpayable",
      "type": "function"
    },
    {
      "inputs": [],
      "name": "name",
      "outputs": [
        {
          "internalType": "string",
          "name": "",
          "type": "string"
        }
      ],
      "stateMutability": "view",
      "type": "function"
    },
    {
      "inputs": [
        {
          "internalType": "uint256",
          "name": "tokenId",
          "type": "uint256"
        }
      ],
      "name": "ownerOf",
      "outputs": [
        {
          "internalType": "address",
          "name": "",
          "type": "address"
        }
      ],
      "stateMutability": "view",
      "type": "function"
    },
    {
      "inputs": [
        {
          "internalType": "bytes32",
          "name": "role",
          "type": "bytes32"
        },
        {
          "internalType": "address",
          "name": "account",
          "type": "address"
        }
      ],
      "name": "renounceRole",
      "outputs": [],
      "stateMutability": "nonpayable",
      "type": "function"
    },
    {
      "inputs": [
        {
          "internalType": "bytes32",
          "name": "role",
          "type": "bytes32"
        },
        {
          "internalType": "address",
          "name": "account",
          "type": "address"
        }
      ],
      "name": "revokeRole",
      "outputs": [],
      "stateMutability": "nonpayable",
      "type": "function"
    },
    {
      "inputs": [
        {
          "internalType": "address",
          "name": "from",
          "type": "address"
        },
        {
          "internalType": "address",
          "name": "to",
          "type": "address"
        },
        {
          "internalType": "uint256",
          "name": "tokenId",
          "type": "uint256"
        }
      ],
      "name": "safeTransferFrom",
      "outputs": [],
      "stateMutability": "nonpayable",
      "type": "function"
    },
    {
      "inputs": [
        {
          "internalType": "address",
          "name": "from",
          "type": "address"
        },
        {
          "internalType": "address",
          "name": "to",
          "type": "address"
        },
        {
          "internalType": "uint256",
          "name": "tokenId",
          "type": "uint256"
        },
        {
          "internalType": "bytes",
          "name": "data",
          "type": "bytes"
        }
      ],
      "name": "safeTransferFrom",
      "outputs": [],
      "stateMutability": "nonpayable",
      "type": "function"
    },
    {
      "inputs": [
        {
          "internalType": "address",
          "name": "operator",
          "type": "address"
        },
        {
          "internalType": "bool",
          "name": "approved",
          "type": "bool"
        }
      ],
      "name": "setApprovalForAll",
      "outputs": [],
      "stateMutability": "nonpayable",
      "type": "function"
    },
    {
      "inputs": [
        {
          "internalType": "bytes4",
          "name": "interfaceId",
          "type": "bytes4"
        }
      ],
      "name": "supportsInterface",
      "outputs": [
        {
          "internalType": "bool",
          "name": "",
          "type": "bool"
        }
      ],
      "stateMutability": "view",
      "type": "function"
    },
    {
      "inputs": [],
      "name": "symbol",
      "outputs": [
        {
          "internalType": "string",
          "name": "",
          "type": "string"
        }
      ],
      "stateMutability": "view",
      "type": "function"
    },
    {
      "inputs": [
        {
          "internalType": "uint256",
          "name": "index",
          "type": "uint256"
        }
      ],
      "name": "tokenByIndex",
      "outputs": [
        {
          "internalType": "uint256",
          "name": "",
          "type": "uint256"
        }
      ],
      "stateMutability": "view",
      "type": "function"
    },
    {
      "inputs": [
        {
          "internalType": "address",
          "name": "owner",
          "type": "address"
        },
        {
          "internalType": "uint256",
          "name": "index",
          "type": "uint256"
        }
      ],
      "name": "tokenOfOwnerByIndex",
      "outputs": [
        {
          "internalType": "uint256",
          "name": "",
          "type": "uint256"
        }
      ],
      "stateMutability": "view",
      "type": "function"
    },
    {
      "inputs": [
        {
          "internalType": "uint256",
          "name": "tokenId",
          "type": "uint256"
        }
      ],
      "name": "tokenURI",
      "outputs": [
        {
          "internalType": "string",
          "name": "",
          "type": "string"
        }
      ],
      "stateMutability": "view",
      "type": "function"
    },
    {
      "inputs": [],
      "name": "totalSupply",
      "outputs": [
        {
          "internalType": "uint256",
          "name": "",
          "type": "uint256"
        }
      ],
      "stateMutability": "view",
      "type": "function"
    },
    {
      "inputs": [
        {
          "internalType": "address",
          "name": "from",
          "type": "address"
        },
        {
          "internalType": "address",
          "name": "to",
          "type": "address"
        },
        {
          "internalType": "uint256",
          "name": "tokenId",
          "type": "uint256"
        }
      ],
      "name": "transferFrom",
      "outputs": [],
      "stateMutability": "nonpayable",
      "type": "function"
    },
    {
      "inputs": [
        {
          "internalType": "uint256",
          "name": "tokenId",
          "type": "uint256"
        },
        {
          "internalType": "string",
          "name": "uri",
          "type": "string"
        }
      ],
      "name": "updateTokenURI",
      "outputs": [],
      "stateMutability": "nonpayable",
      "type": "function"
    }
  ],
  "bytecode": "0x60806040523480156200001157600080fd5b50604051620044eb380380620044eb8339818101604052810190620000379190620004a0565b818181600090805190602001906200005192919062000253565b5080600190805190602001906200006a92919062000253565b505050620000826000801b33620000ee60201b60201c565b620000b47f9f2df0fed2c77648de5860a4cc508cd0818c85b8b8a1ab4ceeef8d981c8956a633620000ee60201b60201c565b620000e67f73e573f9566d61418a34d5de3ff49360f9c51fec37f7486551670290f6285dab33620000ee60201b60201c565b50506200058a565b620001008282620001e060201b60201c565b620001dc576001600b600084815260200190815260200160002060000160008373ffffffffffffffffffffffffffffffffffffffff1673ffffffffffffffffffffffffffffffffffffffff16815260200190815260200160002060006101000a81548160ff021916908315150217905550620001816200024b60201b60201c565b73ffffffffffffffffffffffffffffffffffffffff168173ffffffffffffffffffffffffffffffffffffffff16837f2f8788117e7eff1d82e926ec794901d17c78024a50270940304540a733656f0d60405160405180910390a45b5050565b6000600b600084815260200190815260200160002060000160008373ffffffffffffffffffffffffffffffffffffffff1673ffffffffffffffffffffffffffffffffffffffff16815260200190815260200160002060009054906101000a900460ff16905092915050565b600033905090565b828054620002619062000554565b90600052602060002090601f016020900481019282620002855760008555620002d1565b82601f10620002a057805160ff1916838001178555620002d1565b82800160010185558215620002d1579182015b82811115620002d0578251825591602001919060010190620002b3565b5b509050620002e09190620002e4565b5090565b5b80821115620002ff576000816000905550600101620002e5565b5090565b6000604051905090565b600080fd5b600080fd5b600080fd5b600080fd5b6000601f19601f8301169050919050565b7f4e487b7100000000000000000000000000000000000000000000000000000000600052604160045260246000fd5b6200036c8262000321565b810181811067ffffffffffffffff821117156200038e576200038d62000332565b5b80604052505050565b6000620003a362000303565b9050620003b1828262000361565b919050565b600067ffffffffffffffff821115620003d457620003d362000332565b5b620003df8262000321565b9050602081019050919050565b60005b838110156200040c578082015181840152602081019050620003ef565b838111156200041c576000848401525b50505050565b6000620004396200043384620003b6565b62000397565b9050828152602081018484840111156200045857620004576200031c565b5b62000465848285620003ec565b509392505050565b600082601f83011262000485576200048462000317565b5b81516200049784826020860162000422565b91505092915050565b60008060408385031215620004ba57620004b96200030d565b5b600083015167ffffffffffffffff811115620004db57620004da62000312565b5b620004e9858286016200046d565b925050602083015167ffffffffffffffff8111156200050d576200050c62000312565b5b6200051b858286016200046d565b9150509250929050565b7f4e487b7100000000000000000000000000000000000000000000000000000000600052602260045260246000fd5b600060028204905060018216806200056d57607f821691505b6020821081141562000584576200058362000525565b5b50919050565b613f51806200059a6000396000f3fe608060405234801561001057600080fd5b50600436106101a95760003560e01c806347e63380116100f9578063a22cb46511610097578063d3fc986411610071578063d3fc9864146104f0578063d53913931461050c578063d547741f1461052a578063e985e9c514610546576101a9565b8063a22cb46514610488578063b88d4fde146104a4578063c87b56dd146104c0576101a9565b806370a08231116100d357806370a08231146103ec57806391d148541461041c57806395d89b411461044c578063a217fddf1461046a576101a9565b806347e633801461036e5780634f6ccce71461038c5780636352211e146103bc576101a9565b806323b872dd116101665780632f745c59116101405780632f745c59146102ea57806336568abe1461031a57806342842e0e1461033657806342966c6814610352576101a9565b806323b872dd14610282578063248a9ca31461029e5780632f2ff15d146102ce576101a9565b806301ffc9a7146101ae57806306fdde03146101de578063081812fc146101fc578063095ea7b31461022c57806318160ddd1461024857806318e97fd114610266575b600080fd5b6101c860048036038101906101c39190612a3e565b610576565b6040516101d59190612a86565b60405180910390f35b6101e6610588565b6040516101f39190612b3a565b60405180910390f35b61021660048036038101906102119190612b92565b61061a565b6040516102239190612c00565b60405180910390f35b61024660048036038101906102419190612c47565b610660565b005b610250610778565b60405161025d9190612c96565b60405180910390f35b610280600480360381019061027b9190612de6565b610785565b005b61029c60048036038101906102979190612e42565b6107be565b005b6102b860048036038101906102b39190612ecb565b61081e565b6040516102c59190612f07565b60405180910390f35b6102e860048036038101906102e39190612f22565b61083e565b005b61030460048036038101906102ff9190612c47565b61085f565b6040516103119190612c96565b60405180910390f35b610334600480360381019061032f9190612f22565b610904565b005b610350600480360381019061034b9190612e42565b610987565b005b61036c60048036038101906103679190612b92565b6109a7565b005b610376610a03565b6040516103839190612f07565b60405180910390f35b6103a660048036038101906103a19190612b92565b610a27565b6040516103b39190612c96565b60405180910390f35b6103d660048036038101906103d19190612b92565b610a98565b6040516103e39190612c00565b60405180910390f35b61040660048036038101906104019190612f62565b610b4a565b6040516104139190612c96565b60405180910390f35b61043660048036038101906104319190612f22565b610c02565b6040516104439190612a86565b60405180910390f35b610454610c6d565b6040516104619190612b3a565b60405180910390f35b610472610cff565b60405161047f9190612f07565b60405180910390f35b6104a2600480360381019061049d9190612fbb565b610d06565b005b6104be60048036038101906104b9919061309c565b610d1c565b005b6104da60048036038101906104d59190612b92565b610d7e565b6040516104e79190612b3a565b60405180910390f35b61050a6004803603810190610505919061311f565b610d90565b005b610514610dd4565b6040516105219190612f07565b60405180910390f35b610544600480360381019061053f9190612f22565b610df8565b005b610560600480360381019061055b919061318e565b610e19565b60405161056d9190612a86565b60405180910390f35b600061058182610ead565b9050919050565b606060008054610597906131fd565b80601f01602080910402602001604051908101604052809291908181526020018280546105c3906131fd565b80156106105780601f106105e557610100808354040283529160200191610610565b820191906000526020600020905b8154815290600101906020018083116105f357829003601f168201915b5050505050905090565b600061062582610f27565b6004600083815260200190815260200160002060009054906101000a900473ffffffffffffffffffffffffffffffffffffffff169050919050565b600061066b82610a98565b90508073ffffffffffffffffffffffffffffffffffffffff168373ffffffffffffffffffffffffffffffffffffffff1614156106dc576040517f08c379a00000000000000000000000000000000000000000000000000000000081526004016106d3906132a1565b60405180910390fd5b8073ffffffffffffffffffffffffffffffffffffffff166106fb610f72565b73ffffffffffffffffffffffffffffffffffffffff16148061072a575061072981610724610f72565b610e19565b5b610769576040517f08c379a000000000000000000000000000000000000000000000000000000000815260040161076090613333565b60405180910390fd5b6107738383610f7a565b505050565b6000600880549050905090565b7f73e573f9566d61418a34d5de3ff49360f9c51fec37f7486551670290f6285dab6107af81611033565b6107b98383611047565b505050565b6107cf6107c9610f72565b826110bb565b61080e576040517f08c379a0000000000000000000000000000000000000000000000000000000008152600401610805906133c5565b60405180910390fd5b610819838383611150565b505050565b6000600b6000838152602001908152602001600020600101549050919050565b6108478261081e565b61085081611033565b61085a83836113b7565b505050565b600061086a83610b4a565b82106108ab576040517f08c379a00000000000000000000000000000000000000000000000000000000081526004016108a290613457565b60405180910390fd5b600660008473ffffffffffffffffffffffffffffffffffffffff1673ffffffffffffffffffffffffffffffffffffffff168152602001908152602001600020600083815260200190815260200160002054905092915050565b61090c610f72565b73ffffffffffffffffffffffffffffffffffffffff168173ffffffffffffffffffffffffffffffffffffffff1614610979576040517f08c379a0000000000000000000000000000000000000000000000000000000008152600401610970906134e9565b60405180910390fd5b6109838282611498565b5050565b6109a283838360405180602001604052806000815250610d1c565b505050565b6109b86109b2610f72565b826110bb565b6109f7576040517f08c379a00000000000000000000000000000000000000000000000000000000081526004016109ee906133c5565b60405180910390fd5b610a008161157a565b50565b7f73e573f9566d61418a34d5de3ff49360f9c51fec37f7486551670290f6285dab81565b6000610a31610778565b8210610a72576040517f08c379a0000000000000000000000000000000000000000000000000000000008152600401610a699061357b565b60405180910390fd5b60088281548110610a8657610a8561359b565b5b90600052602060002001549050919050565b6000806002600084815260200190815260200160002060009054906101000a900473ffffffffffffffffffffffffffffffffffffffff169050600073ffffffffffffffffffffffffffffffffffffffff168173ffffffffffffffffffffffffffffffffffffffff161415610b41576040517f08c379a0000000000000000000000000000000000000000000000000000000008152600401610b3890613616565b60405180910390fd5b80915050919050565b60008073ffffffffffffffffffffffffffffffffffffffff168273ffffffffffffffffffffffffffffffffffffffff161415610bbb576040517f08c379a0000000000000000000000000000000000000000000000000000000008152600401610bb2906136a8565b60405180910390fd5b600360008373ffffffffffffffffffffffffffffffffffffffff1673ffffffffffffffffffffffffffffffffffffffff168152602001908152602001600020549050919050565b6000600b600084815260200190815260200160002060000160008373ffffffffffffffffffffffffffffffffffffffff1673ffffffffffffffffffffffffffffffffffffffff16815260200190815260200160002060009054906101000a900460ff16905092915050565b606060018054610c7c906131fd565b80601f0160208091040260200160405190810160405280929190818152602001828054610ca8906131fd565b8015610cf55780601f10610cca57610100808354040283529160200191610cf5565b820191906000526020600020905b815481529060010190602001808311610cd857829003601f168201915b5050505050905090565b6000801b81565b610d18610d11610f72565b8383611586565b5050565b610d2d610d27610f72565b836110bb565b610d6c576040517f08c379a0000000000000000000000000000000000000000000000000000000008152600401610d63906133c5565b60405180910390fd5b610d78848484846116f3565b50505050565b6060610d898261174f565b9050919050565b7f9f2df0fed2c77648de5860a4cc508cd0818c85b8b8a1ab4ceeef8d981c8956a6610dba81611033565b610dc48484611862565b610dce8383611047565b50505050565b7f9f2df0fed2c77648de5860a4cc508cd0818c85b8b8a1ab4ceeef8d981c8956a681565b610e018261081e565b610e0a81611033565b610e148383611498565b505050565b6000600560008473ffffffffffffffffffffffffffffffffffffffff1673ffffffffffffffffffffffffffffffffffffffff16815260200190815260200160002060008373ffffffffffffffffffffffffffffffffffffffff1673ffffffffffffffffffffffffffffffffffffffff16815260200190815260200160002060009054906101000a900460ff16905092915050565b60007f7965db0b000000000000000000000000000000000000000000000000000000007bffffffffffffffffffffffffffffffffffffffffffffffffffffffff1916827bffffffffffffffffffffffffffffffffffffffffffffffffffffffff19161480610f205750610f1f82611880565b5b9050919050565b610f30816118fa565b610f6f576040517f08c379a0000000000000000000000000000000000000000000000000000000008152600401610f6690613616565b60405180910390fd5b50565b600033905090565b816004600083815260200190815260200160002060006101000a81548173ffffffffffffffffffffffffffffffffffffffff021916908373ffffffffffffffffffffffffffffffffffffffff160217905550808273ffffffffffffffffffffffffffffffffffffffff16610fed83610a98565b73ffffffffffffffffffffffffffffffffffffffff167f8c5be1e5ebec7d5bd14f71427d1e84f3dd0314c0f7b2291e5b200ac8c7c3b92560405160405180910390a45050565b6110448161103f610f72565b611966565b50565b611050826118fa565b61108f576040517f08c379a00000000000000000000000000000000000000000000000000000000081526004016110869061373a565b60405180910390fd5b80600a600084815260200190815260200160002090805190602001906110b69291906128ef565b505050565b6000806110c783610a98565b90508073ffffffffffffffffffffffffffffffffffffffff168473ffffffffffffffffffffffffffffffffffffffff16148061110957506111088185610e19565b5b8061114757508373ffffffffffffffffffffffffffffffffffffffff1661112f8461061a565b73ffffffffffffffffffffffffffffffffffffffff16145b91505092915050565b8273ffffffffffffffffffffffffffffffffffffffff1661117082610a98565b73ffffffffffffffffffffffffffffffffffffffff16146111c6576040517f08c379a00000000000000000000000000000000000000000000000000000000081526004016111bd906137cc565b60405180910390fd5b600073ffffffffffffffffffffffffffffffffffffffff168273ffffffffffffffffffffffffffffffffffffffff161415611236576040517f08c379a000000000000000000000000000000000000000000000000000000000815260040161122d9061385e565b60405180910390fd5b611241838383611a03565b61124c600082610f7a565b6001600360008573ffffffffffffffffffffffffffffffffffffffff1673ffffffffffffffffffffffffffffffffffffffff168152602001908152602001600020600082825461129c91906138ad565b925050819055506001600360008473ffffffffffffffffffffffffffffffffffffffff1673ffffffffffffffffffffffffffffffffffffffff16815260200190815260200160002060008282546112f391906138e1565b92505081905550816002600083815260200190815260200160002060006101000a81548173ffffffffffffffffffffffffffffffffffffffff021916908373ffffffffffffffffffffffffffffffffffffffff160217905550808273ffffffffffffffffffffffffffffffffffffffff168473ffffffffffffffffffffffffffffffffffffffff167fddf252ad1be2c89b69c2b068fc378daa952ba7f163c4a11628f55a4df523b3ef60405160405180910390a46113b2838383611a13565b505050565b6113c18282610c02565b611494576001600b600084815260200190815260200160002060000160008373ffffffffffffffffffffffffffffffffffffffff1673ffffffffffffffffffffffffffffffffffffffff16815260200190815260200160002060006101000a81548160ff021916908315150217905550611439610f72565b73ffffffffffffffffffffffffffffffffffffffff168173ffffffffffffffffffffffffffffffffffffffff16837f2f8788117e7eff1d82e926ec794901d17c78024a50270940304540a733656f0d60405160405180910390a45b5050565b6114a28282610c02565b15611576576000600b600084815260200190815260200160002060000160008373ffffffffffffffffffffffffffffffffffffffff1673ffffffffffffffffffffffffffffffffffffffff16815260200190815260200160002060006101000a81548160ff02191690831515021790555061151b610f72565b73ffffffffffffffffffffffffffffffffffffffff168173ffffffffffffffffffffffffffffffffffffffff16837ff6391f5c32d9c69d2a47ea670b442974b53935d1edc7fd64eb21e047a839171b60405160405180910390a45b5050565b61158381611a18565b50565b8173ffffffffffffffffffffffffffffffffffffffff168373ffffffffffffffffffffffffffffffffffffffff1614156115f5576040517f08c379a00000000000000000000000000000000000000000000000000000000081526004016115ec90613983565b60405180910390fd5b80600560008573ffffffffffffffffffffffffffffffffffffffff1673ffffffffffffffffffffffffffffffffffffffff16815260200190815260200160002060008473ffffffffffffffffffffffffffffffffffffffff1673ffffffffffffffffffffffffffffffffffffffff16815260200190815260200160002060006101000a81548160ff0219169083151502179055508173ffffffffffffffffffffffffffffffffffffffff168373ffffffffffffffffffffffffffffffffffffffff167f17307eab39ab6107e8899845ad3d59bd9653f200f220920489ca2b5937696c31836040516116e69190612a86565b60405180910390a3505050565b6116fe848484611150565b61170a84848484611a6b565b611749576040517f08c379a000000000000000000000000000000000000000000000000000000000815260040161174090613a15565b60405180910390fd5b50505050565b606061175a82610f27565b6000600a6000848152602001908152602001600020805461177a906131fd565b80601f01602080910402602001604051908101604052809291908181526020018280546117a6906131fd565b80156117f35780601f106117c8576101008083540402835291602001916117f3565b820191906000526020600020905b8154815290600101906020018083116117d657829003601f168201915b505050505090506000611804611bf3565b905060008151141561181a57819250505061185d565b60008251111561184f578082604051602001611837929190613a71565b6040516020818303038152906040529250505061185d565b61185884611c0a565b925050505b919050565b61187c828260405180602001604052806000815250611c72565b5050565b60007f780e9d63000000000000000000000000000000000000000000000000000000007bffffffffffffffffffffffffffffffffffffffffffffffffffffffff1916827bffffffffffffffffffffffffffffffffffffffffffffffffffffffff191614806118f357506118f282611ccd565b5b9050919050565b60008073ffffffffffffffffffffffffffffffffffffffff166002600084815260200190815260200160002060009054906101000a900473ffffffffffffffffffffffffffffffffffffffff1673ffffffffffffffffffffffffffffffffffffffff1614159050919050565b6119708282610c02565b6119ff576119958173ffffffffffffffffffffffffffffffffffffffff166014611daf565b6119a38360001c6020611daf565b6040516020016119b4929190613b2d565b6040516020818303038152906040526040517f08c379a00000000000000000000000000000000000000000000000000000000081526004016119f69190612b3a565b60405180910390fd5b5050565b611a0e838383611feb565b505050565b505050565b611a21816120ff565b6000600a60008381526020019081526020016000208054611a41906131fd565b905014611a6857600a60008281526020019081526020016000206000611a679190612975565b5b50565b6000611a8c8473ffffffffffffffffffffffffffffffffffffffff1661221c565b15611be6578373ffffffffffffffffffffffffffffffffffffffff1663150b7a02611ab5610f72565b8786866040518563ffffffff1660e01b8152600401611ad79493929190613bbc565b6020604051808303816000875af1925050508015611b1357506040513d601f19601f82011682018060405250810190611b109190613c1d565b60015b611b96573d8060008114611b43576040519150601f19603f3d011682016040523d82523d6000602084013e611b48565b606091505b50600081511415611b8e576040517f08c379a0000000000000000000000000000000000000000000000000000000008152600401611b8590613a15565b60405180910390fd5b805181602001fd5b63150b7a0260e01b7bffffffffffffffffffffffffffffffffffffffffffffffffffffffff1916817bffffffffffffffffffffffffffffffffffffffffffffffffffffffff191614915050611beb565b600190505b949350505050565b606060405180602001604052806000815250905090565b6060611c1582610f27565b6000611c1f611bf3565b90506000815111611c3f5760405180602001604052806000815250611c6a565b80611c498461223f565b604051602001611c5a929190613a71565b6040516020818303038152906040525b915050919050565b611c7c83836123a0565b611c896000848484611a6b565b611cc8576040517f08c379a0000000000000000000000000000000000000000000000000000000008152600401611cbf90613a15565b60405180910390fd5b505050565b60007f80ac58cd000000000000000000000000000000000000000000000000000000007bffffffffffffffffffffffffffffffffffffffffffffffffffffffff1916827bffffffffffffffffffffffffffffffffffffffffffffffffffffffff19161480611d9857507f5b5e139f000000000000000000000000000000000000000000000000000000007bffffffffffffffffffffffffffffffffffffffffffffffffffffffff1916827bffffffffffffffffffffffffffffffffffffffffffffffffffffffff1916145b80611da85750611da78261257a565b5b9050919050565b606060006002836002611dc29190613c4a565b611dcc91906138e1565b67ffffffffffffffff811115611de557611de4612cbb565b5b6040519080825280601f01601f191660200182016040528015611e175781602001600182028036833780820191505090505b5090507f300000000000000000000000000000000000000000000000000000000000000081600081518110611e4f57611e4e61359b565b5b60200101907effffffffffffffffffffffffffffffffffffffffffffffffffffffffffffff1916908160001a9053507f780000000000000000000000000000000000000000000000000000000000000081600181518110611eb357611eb261359b565b5b60200101907effffffffffffffffffffffffffffffffffffffffffffffffffffffffffffff1916908160001a90535060006001846002611ef39190613c4a565b611efd91906138e1565b90505b6001811115611f9d577f3031323334353637383961626364656600000000000000000000000000000000600f861660108110611f3f57611f3e61359b565b5b1a60f81b828281518110611f5657611f5561359b565b5b60200101907effffffffffffffffffffffffffffffffffffffffffffffffffffffffffffff1916908160001a905350600485901c945080611f9690613ca4565b9050611f00565b5060008414611fe1576040517f08c379a0000000000000000000000000000000000000000000000000000000008152600401611fd890613d1a565b60405180910390fd5b8091505092915050565b611ff68383836125e4565b600073ffffffffffffffffffffffffffffffffffffffff168373ffffffffffffffffffffffffffffffffffffffff16141561203957612034816125e9565b612078565b8173ffffffffffffffffffffffffffffffffffffffff168373ffffffffffffffffffffffffffffffffffffffff1614612077576120768382612632565b5b5b600073ffffffffffffffffffffffffffffffffffffffff168273ffffffffffffffffffffffffffffffffffffffff1614156120bb576120b68161279f565b6120fa565b8273ffffffffffffffffffffffffffffffffffffffff168273ffffffffffffffffffffffffffffffffffffffff16146120f9576120f88282612870565b5b5b505050565b600061210a82610a98565b905061211881600084611a03565b612123600083610f7a565b6001600360008373ffffffffffffffffffffffffffffffffffffffff1673ffffffffffffffffffffffffffffffffffffffff168152602001908152602001600020600082825461217391906138ad565b925050819055506002600083815260200190815260200160002060006101000a81549073ffffffffffffffffffffffffffffffffffffffff021916905581600073ffffffffffffffffffffffffffffffffffffffff168273ffffffffffffffffffffffffffffffffffffffff167fddf252ad1be2c89b69c2b068fc378daa952ba7f163c4a11628f55a4df523b3ef60405160405180910390a461221881600084611a13565b5050565b6000808273ffffffffffffffffffffffffffffffffffffffff163b119050919050565b60606000821415612287576040518060400160405280600181526020017f3000000000000000000000000000000000000000000000000000000000000000815250905061239b565b600082905060005b600082146122b95780806122a290613d3a565b915050600a826122b29190613db2565b915061228f565b60008167ffffffffffffffff8111156122d5576122d4612cbb565b5b6040519080825280601f01601f1916602001820160405280156123075781602001600182028036833780820191505090505b5090505b600085146123945760018261232091906138ad565b9150600a8561232f9190613de3565b603061233b91906138e1565b60f81b8183815181106123515761235061359b565b5b60200101907effffffffffffffffffffffffffffffffffffffffffffffffffffffffffffff1916908160001a905350600a8561238d9190613db2565b945061230b565b8093505050505b919050565b600073ffffffffffffffffffffffffffffffffffffffff168273ffffffffffffffffffffffffffffffffffffffff161415612410576040517f08c379a000000000000000000000000000000000000000000000000000000000815260040161240790613e60565b60405180910390fd5b612419816118fa565b15612459576040517f08c379a000000000000000000000000000000000000000000000000000000000815260040161245090613ecc565b60405180910390fd5b61246560008383611a03565b6001600360008473ffffffffffffffffffffffffffffffffffffffff1673ffffffffffffffffffffffffffffffffffffffff16815260200190815260200160002060008282546124b591906138e1565b92505081905550816002600083815260200190815260200160002060006101000a81548173ffffffffffffffffffffffffffffffffffffffff021916908373ffffffffffffffffffffffffffffffffffffffff160217905550808273ffffffffffffffffffffffffffffffffffffffff16600073ffffffffffffffffffffffffffffffffffffffff167fddf252ad1be2c89b69c2b068fc378daa952ba7f163c4a11628f55a4df523b3ef60405160405180910390a461257660008383611a13565b5050565b60007f01ffc9a7000000000000000000000000000000000000000000000000000000007bffffffffffffffffffffffffffffffffffffffffffffffffffffffff1916827bffffffffffffffffffffffffffffffffffffffffffffffffffffffff1916149050919050565b505050565b6008805490506009600083815260200190815260200160002081905550600881908060018154018082558091505060019003906000526020600020016000909190919091505550565b6000600161263f84610b4a565b61264991906138ad565b905060006007600084815260200190815260200160002054905081811461272e576000600660008673ffffffffffffffffffffffffffffffffffffffff1673ffffffffffffffffffffffffffffffffffffffff168152602001908152602001600020600084815260200190815260200160002054905080600660008773ffffffffffffffffffffffffffffffffffffffff1673ffffffffffffffffffffffffffffffffffffffff168152602001908152602001600020600084815260200190815260200160002081905550816007600083815260200190815260200160002081905550505b6007600084815260200190815260200160002060009055600660008573ffffffffffffffffffffffffffffffffffffffff1673ffffffffffffffffffffffffffffffffffffffff16815260200190815260200160002060008381526020019081526020016000206000905550505050565b600060016008805490506127b391906138ad565b90506000600960008481526020019081526020016000205490506000600883815481106127e3576127e261359b565b5b9060005260206000200154905080600883815481106128055761280461359b565b5b90600052602060002001819055508160096000838152602001908152602001600020819055506009600085815260200190815260200160002060009055600880548061285457612853613eec565b5b6001900381819060005260206000200160009055905550505050565b600061287b83610b4a565b905081600660008573ffffffffffffffffffffffffffffffffffffffff1673ffffffffffffffffffffffffffffffffffffffff168152602001908152602001600020600083815260200190815260200160002081905550806007600084815260200190815260200160002081905550505050565b8280546128fb906131fd565b90600052602060002090601f01602090048101928261291d5760008555612964565b82601f1061293657805160ff1916838001178555612964565b82800160010185558215612964579182015b82811115612963578251825591602001919060010190612948565b5b50905061297191906129b5565b5090565b508054612981906131fd565b6000825580601f1061299357506129b2565b601f0160209004906000526020600020908101906129b191906129b5565b5b50565b5b808211156129ce5760008160009055506001016129b6565b5090565b6000604051905090565b600080fd5b600080fd5b60007fffffffff0000000000000000000000000000000000000000000000000000000082169050919050565b612a1b816129e6565b8114612a2657600080fd5b50565b600081359050612a3881612a12565b92915050565b600060208284031215612a5457612a536129dc565b5b6000612a6284828501612a29565b91505092915050565b60008115159050919050565b612a8081612a6b565b82525050565b6000602082019050612a9b6000830184612a77565b92915050565b600081519050919050565b600082825260208201905092915050565b60005b83811015612adb578082015181840152602081019050612ac0565b83811115612aea576000848401525b50505050565b6000601f19601f8301169050919050565b6000612b0c82612aa1565b612b168185612aac565b9350612b26818560208601612abd565b612b2f81612af0565b840191505092915050565b60006020820190508181036000830152612b548184612b01565b905092915050565b6000819050919050565b612b6f81612b5c565b8114612b7a57600080fd5b50565b600081359050612b8c81612b66565b92915050565b600060208284031215612ba857612ba76129dc565b5b6000612bb684828501612b7d565b91505092915050565b600073ffffffffffffffffffffffffffffffffffffffff82169050919050565b6000612bea82612bbf565b9050919050565b612bfa81612bdf565b82525050565b6000602082019050612c156000830184612bf1565b92915050565b612c2481612bdf565b8114612c2f57600080fd5b50565b600081359050612c4181612c1b565b92915050565b60008060408385031215612c5e57612c5d6129dc565b5b6000612c6c85828601612c32565b9250506020612c7d85828601612b7d565b9150509250929050565b612c9081612b5c565b82525050565b6000602082019050612cab6000830184612c87565b92915050565b600080fd5b600080fd5b7f4e487b7100000000000000000000000000000000000000000000000000000000600052604160045260246000fd5b612cf382612af0565b810181811067ffffffffffffffff82111715612d1257612d11612cbb565b5b80604052505050565b6000612d256129d2565b9050612d318282612cea565b919050565b600067ffffffffffffffff821115612d5157612d50612cbb565b5b612d5a82612af0565b9050602081019050919050565b82818337600083830152505050565b6000612d89612d8484612d36565b612d1b565b905082815260208101848484011115612da557612da4612cb6565b5b612db0848285612d67565b509392505050565b600082601f830112612dcd57612dcc612cb1565b5b8135612ddd848260208601612d76565b91505092915050565b60008060408385031215612dfd57612dfc6129dc565b5b6000612e0b85828601612b7d565b925050602083013567ffffffffffffffff811115612e2c57612e2b6129e1565b5b612e3885828601612db8565b9150509250929050565b600080600060608486031215612e5b57612e5a6129dc565b5b6000612e6986828701612c32565b9350506020612e7a86828701612c32565b9250506040612e8b86828701612b7d565b9150509250925092565b6000819050919050565b612ea881612e95565b8114612eb357600080fd5b50565b600081359050612ec581612e9f565b92915050565b600060208284031215612ee157612ee06129dc565b5b6000612eef84828501612eb6565b91505092915050565b612f0181612e95565b82525050565b6000602082019050612f1c6000830184612ef8565b92915050565b60008060408385031215612f3957612f386129dc565b5b6000612f4785828601612eb6565b9250506020612f5885828601612c32565b9150509250929050565b600060208284031215612f7857612f776129dc565b5b6000612f8684828501612c32565b91505092915050565b612f9881612a6b565b8114612fa357600080fd5b50565b600081359050612fb581612f8f565b92915050565b60008060408385031215612fd257612fd16129dc565b5b6000612fe085828601612c32565b9250506020612ff185828601612fa6565b9150509250929050565b600067ffffffffffffffff82111561301657613015612cbb565b5b61301f82612af0565b9050602081019050919050565b600061303f61303a84612ffb565b612d1b565b90508281526020810184848401111561305b5761305a612cb6565b5b613066848285612d67565b509392505050565b600082601f83011261308357613082612cb1565b5b813561309384826020860161302c565b91505092915050565b600080600080608085870312156130b6576130b56129dc565b5b60006130c487828801612c32565b94505060206130d587828801612c32565b93505060406130e687828801612b7d565b925050606085013567ffffffffffffffff811115613107576131066129e1565b5b6131138782880161306e565b91505092959194509250565b600080600060608486031215613138576131376129dc565b5b600061314686828701612c32565b935050602061315786828701612b7d565b925050604084013567ffffffffffffffff811115613178576131776129e1565b5b61318486828701612db8565b9150509250925092565b600080604083850312156131a5576131a46129dc565b5b60006131b385828601612c32565b92505060206131c485828601612c32565b9150509250929050565b7f4e487b7100000000000000000000000000000000000000000000000000000000600052602260045260246000fd5b6000600282049050600182168061321557607f821691505b60208210811415613229576132286131ce565b5b50919050565b7f4552433732313a20617070726f76616c20746f2063757272656e74206f776e6560008201527f7200000000000000000000000000000000000000000000000000000000000000602082015250565b600061328b602183612aac565b91506132968261322f565b604082019050919050565b600060208201905081810360008301526132ba8161327e565b9050919050565b7f4552433732313a20617070726f76652063616c6c6572206973206e6f7420746f60008201527f6b656e206f776e6572206e6f7220617070726f76656420666f7220616c6c0000602082015250565b600061331d603e83612aac565b9150613328826132c1565b604082019050919050565b6000602082019050818103600083015261334c81613310565b9050919050565b7f4552433732313a2063616c6c6572206973206e6f7420746f6b656e206f776e6560008201527f72206e6f7220617070726f766564000000000000000000000000000000000000602082015250565b60006133af602e83612aac565b91506133ba82613353565b604082019050919050565b600060208201905081810360008301526133de816133a2565b9050919050565b7f455243373231456e756d657261626c653a206f776e657220696e646578206f7560008201527f74206f6620626f756e6473000000000000000000000000000000000000000000602082015250565b6000613441602b83612aac565b915061344c826133e5565b604082019050919050565b6000602082019050818103600083015261347081613434565b9050919050565b7f416363657373436f6e74726f6c3a2063616e206f6e6c792072656e6f756e636560008201527f20726f6c657320666f722073656c660000000000000000000000000000000000602082015250565b60006134d3602f83612aac565b91506134de82613477565b604082019050919050565b60006020820190508181036000830152613502816134c6565b9050919050565b7f455243373231456e756d657261626c653a20676c6f62616c20696e646578206f60008201527f7574206f6620626f756e64730000000000000000000000000000000000000000602082015250565b6000613565602c83612aac565b915061357082613509565b604082019050919050565b6000602082019050818103600083015261359481613558565b9050919050565b7f4e487b7100000000000000000000000000000000000000000000000000000000600052603260045260246000fd5b7f4552433732313a20696e76616c696420746f6b656e2049440000000000000000600082015250565b6000613600601883612aac565b915061360b826135ca565b602082019050919050565b6000602082019050818103600083015261362f816135f3565b9050919050565b7f4552433732313a2061646472657373207a65726f206973206e6f74206120766160008201527f6c6964206f776e65720000000000000000000000000000000000000000000000602082015250565b6000613692602983612aac565b915061369d82613636565b604082019050919050565b600060208201905081810360008301526136c181613685565b9050919050565b7f45524337323155524953746f726167653a2055524920736574206f66206e6f6e60008201527f6578697374656e7420746f6b656e000000000000000000000000000000000000602082015250565b6000613724602e83612aac565b915061372f826136c8565b604082019050919050565b6000602082019050818103600083015261375381613717565b9050919050565b7f4552433732313a207472616e736665722066726f6d20696e636f72726563742060008201527f6f776e6572000000000000000000000000000000000000000000000000000000602082015250565b60006137b6602583612aac565b91506137c18261375a565b604082019050919050565b600060208201905081810360008301526137e5816137a9565b9050919050565b7f4552433732313a207472616e7366657220746f20746865207a65726f2061646460008201527f7265737300000000000000000000000000000000000000000000000000000000602082015250565b6000613848602483612aac565b9150613853826137ec565b604082019050919050565b600060208201905081810360008301526138778161383b565b9050919050565b7f4e487b7100000000000000000000000000000000000000000000000000000000600052601160045260246000fd5b60006138b882612b5c565b91506138c383612b5c565b9250828210156138d6576138d561387e565b5b828203905092915050565b60006138ec82612b5c565b91506138f783612b5c565b9250827fffffffffffffffffffffffffffffffffffffffffffffffffffffffffffffffff0382111561392c5761392b61387e565b5b828201905092915050565b7f4552433732313a20617070726f766520746f2063616c6c657200000000000000600082015250565b600061396d601983612aac565b915061397882613937565b602082019050919050565b6000602082019050818103600083015261399c81613960565b9050919050565b7f4552433732313a207472616e7366657220746f206e6f6e20455243373231526560008201527f63656976657220696d706c656d656e7465720000000000000000000000000000602082015250565b60006139ff603283612aac565b9150613a0a826139a3565b604082019050919050565b60006020820190508181036000830152613a2e816139f2565b9050919050565b600081905092915050565b6000613a4b82612aa1565b613a558185613a35565b9350613a65818560208601612abd565b80840191505092915050565b6000613a7d8285613a40565b9150613a898284613a40565b91508190509392505050565b7f416363657373436f6e74726f6c3a206163636f756e7420000000000000000000600082015250565b6000613acb601783613a35565b9150613ad682613a95565b601782019050919050565b7f206973206d697373696e6720726f6c6520000000000000000000000000000000600082015250565b6000613b17601183613a35565b9150613b2282613ae1565b601182019050919050565b6000613b3882613abe565b9150613b448285613a40565b9150613b4f82613b0a565b9150613b5b8284613a40565b91508190509392505050565b600081519050919050565b600082825260208201905092915050565b6000613b8e82613b67565b613b988185613b72565b9350613ba8818560208601612abd565b613bb181612af0565b840191505092915050565b6000608082019050613bd16000830187612bf1565b613bde6020830186612bf1565b613beb6040830185612c87565b8181036060830152613bfd8184613b83565b905095945050505050565b600081519050613c1781612a12565b92915050565b600060208284031215613c3357613c326129dc565b5b6000613c4184828501613c08565b91505092915050565b6000613c5582612b5c565b9150613c6083612b5c565b9250817fffffffffffffffffffffffffffffffffffffffffffffffffffffffffffffffff0483118215151615613c9957613c9861387e565b5b828202905092915050565b6000613caf82612b5c565b91506000821415613cc357613cc261387e565b5b600182039050919050565b7f537472696e67733a20686578206c656e67746820696e73756666696369656e74600082015250565b6000613d04602083612aac565b9150613d0f82613cce565b602082019050919050565b60006020820190508181036000830152613d3381613cf7565b9050919050565b6000613d4582612b5c565b91507fffffffffffffffffffffffffffffffffffffffffffffffffffffffffffffffff821415613d7857613d7761387e565b5b600182019050919050565b7f4e487b7100000000000000000000000000000000000000000000000000000000600052601260045260246000fd5b6000613dbd82612b5c565b9150613dc883612b5c565b925082613dd857613dd7613d83565b5b828204905092915050565b6000613dee82612b5c565b9150613df983612b5c565b925082613e0957613e08613d83565b5b828206905092915050565b7f4552433732313a206d696e7420746f20746865207a65726f2061646472657373600082015250565b6000613e4a602083612aac565b9150613e5582613e14565b602082019050919050565b60006020820190508181036000830152613e7981613e3d565b9050919050565b7f4552433732313a20746f6b656e20616c7265616479206d696e74656400000000600082015250565b6000613eb6601c83612aac565b9150613ec182613e80565b602082019050919050565b60006020820190508181036000830152613ee581613ea9565b9050919050565b7f4e487b7100000000000000000000000000000000000000000000000000000000600052603160045260246000fdfea2646970667358221220081aa45214b1915ea2357bfb7a119943dad753192d59d371af5746a4cdd45a2f64736f6c634300080b0033",
  "linkReferences": {},
  "deployedLinkReferences": {}
}